{
  "_format": "hh-sol-artifact-1",
  "contractName": "AgentMarket",
  "sourceName": "contracts/AgentMarket.sol",
  "abi": [
    {
      "inputs": [],
      "stateMutability": "nonpayable",
      "type": "constructor"
    },
    {
      "anonymous": false,
      "inputs": [
        {
          "indexed": true,
          "internalType": "uint256",
          "name": "agentId",
          "type": "uint256"
        },
        {
          "indexed": true,
          "internalType": "address",
          "name": "oldOwner",
          "type": "address"
        },
        {
          "indexed": true,
          "internalType": "address",
          "name": "newOwner",
          "type": "address"
        },
        {
          "indexed": false,
          "internalType": "uint256",
          "name": "price",
          "type": "uint256"
        }
      ],
      "name": "AgentBought",
      "type": "event"
    },
    {
      "anonymous": false,
      "inputs": [
        {
          "indexed": true,
          "internalType": "uint256",
          "name": "agentId",
          "type": "uint256"
        },
        {
          "indexed": true,
          "internalType": "address",
          "name": "owner",
          "type": "address"
        },
        {
          "indexed": false,
          "internalType": "uint256",
          "name": "refundAmount",
          "type": "uint256"
        }
      ],
      "name": "AgentBurned",
      "type": "event"
    },
    {
      "anonymous": false,
      "inputs": [
        {
          "indexed": true,
          "internalType": "uint256",
          "name": "agentId",
          "type": "uint256"
        },
        {
          "indexed": false,
          "internalType": "uint256",
          "name": "price",
          "type": "uint256"
        }
      ],
      "name": "AgentListed",
      "type": "event"
    },
    {
      "anonymous": false,
      "inputs": [
        {
          "indexed": true,
          "internalType": "uint256",
          "name": "agentId",
          "type": "uint256"
        },
        {
          "indexed": true,
          "internalType": "address",
          "name": "creator",
          "type": "address"
        },
        {
          "indexed": false,
          "internalType": "string",
          "name": "role",
          "type": "string"
        }
      ],
      "name": "AgentMinted",
      "type": "event"
    },
    {
      "anonymous": false,
      "inputs": [
        {
          "indexed": true,
          "internalType": "uint256",
          "name": "agentId",
          "type": "uint256"
        },
        {
          "indexed": false,
          "internalType": "address",
          "name": "caller",
          "type": "address"
        }
      ],
      "name": "AgentUsed",
      "type": "event"
    },
    {
      "inputs": [
        {
          "internalType": "uint256",
          "name": "",
          "type": "uint256"
        }
      ],
      "name": "agentExists",
      "outputs": [
        {
          "internalType": "bool",
          "name": "",
          "type": "bool"
        }
      ],
      "stateMutability": "view",
      "type": "function"
    },
    {
      "inputs": [
        {
          "internalType": "uint256",
          "name": "",
          "type": "uint256"
        }
      ],
      "name": "agents",
      "outputs": [
        {
          "internalType": "uint256",
          "name": "id",
          "type": "uint256"
        },
        {
          "internalType": "address",
          "name": "creator",
          "type": "address"
        },
        {
          "internalType": "address",
          "name": "owner",
          "type": "address"
        },
        {
          "internalType": "uint256",
          "name": "mintPrice",
          "type": "uint256"
        },
        {
          "internalType": "uint256",
          "name": "usageCount",
          "type": "uint256"
        },
        {
          "internalType": "bool",
          "name": "listed",
          "type": "bool"
        },
        {
          "internalType": "uint256",
          "name": "price",
          "type": "uint256"
        },
        {
          "internalType": "string",
          "name": "role",
          "type": "string"
        },
        {
          "internalType": "string",
          "name": "metadataURI",
          "type": "string"
        }
      ],
      "stateMutability": "view",
      "type": "function"
    },
    {
      "inputs": [
        {
          "internalType": "uint256",
          "name": "",
          "type": "uint256"
        }
      ],
      "name": "allAgentIds",
      "outputs": [
        {
          "internalType": "uint256",
          "name": "",
          "type": "uint256"
        }
      ],
      "stateMutability": "view",
      "type": "function"
    },
    {
      "inputs": [
        {
          "internalType": "uint256",
          "name": "agentId",
          "type": "uint256"
        }
      ],
      "name": "burnAgent",
      "outputs": [],
      "stateMutability": "nonpayable",
      "type": "function"
    },
    {
      "inputs": [
        {
          "internalType": "uint256",
          "name": "agentId",
          "type": "uint256"
        }
      ],
      "name": "buyAgent",
      "outputs": [],
      "stateMutability": "payable",
      "type": "function"
    },
    {
      "inputs": [],
      "name": "costPerUse",
      "outputs": [
        {
          "internalType": "uint256",
          "name": "",
          "type": "uint256"
        }
      ],
      "stateMutability": "view",
      "type": "function"
    },
    {
      "inputs": [
        {
          "internalType": "string",
          "name": "role",
          "type": "string"
        }
      ],
      "name": "getAgentsByRole",
      "outputs": [
        {
          "components": [
            {
              "internalType": "uint256",
              "name": "id",
              "type": "uint256"
            },
            {
              "internalType": "address",
              "name": "creator",
              "type": "address"
            },
            {
              "internalType": "address",
              "name": "owner",
              "type": "address"
            },
            {
              "internalType": "uint256",
              "name": "mintPrice",
              "type": "uint256"
            },
            {
              "internalType": "uint256",
              "name": "usageCount",
              "type": "uint256"
            },
            {
              "internalType": "bool",
              "name": "listed",
              "type": "bool"
            },
            {
              "internalType": "uint256",
              "name": "price",
              "type": "uint256"
            },
            {
              "internalType": "string",
              "name": "role",
              "type": "string"
            },
            {
              "internalType": "string",
              "name": "metadataURI",
              "type": "string"
            }
          ],
          "internalType": "struct AgentMarket.Agent[]",
          "name": "",
          "type": "tuple[]"
        }
      ],
      "stateMutability": "view",
      "type": "function"
    },
    {
      "inputs": [
        {
          "internalType": "uint256",
          "name": "agentId",
          "type": "uint256"
        },
        {
          "internalType": "uint256",
          "name": "price",
          "type": "uint256"
        }
      ],
      "name": "listAgent",
      "outputs": [],
      "stateMutability": "nonpayable",
      "type": "function"
    },
    {
      "inputs": [],
      "name": "marketOwner",
      "outputs": [
        {
          "internalType": "address",
          "name": "",
          "type": "address"
        }
      ],
      "stateMutability": "view",
      "type": "function"
    },
    {
      "inputs": [
        {
          "internalType": "string",
          "name": "role",
          "type": "string"
        },
        {
          "internalType": "string",
          "name": "metadataURI",
          "type": "string"
        }
      ],
      "name": "mintAgent",
      "outputs": [],
      "stateMutability": "payable",
      "type": "function"
    },
    {
      "inputs": [],
      "name": "mintFee",
      "outputs": [
        {
          "internalType": "uint256",
          "name": "",
          "type": "uint256"
        }
      ],
      "stateMutability": "view",
      "type": "function"
    },
    {
      "inputs": [
        {
          "internalType": "uint256",
          "name": "agentId",
          "type": "uint256"
        }
      ],
      "name": "useAgent",
      "outputs": [],
      "stateMutability": "nonpayable",
      "type": "function"
    },
    {
      "inputs": [],
      "name": "withdrawFunds",
      "outputs": [],
      "stateMutability": "nonpayable",
      "type": "function"
    }
  ],
  "bytecode": "0x60a060405234801561001057600080fd5b503373ffffffffffffffffffffffffffffffffffffffff1660808173ffffffffffffffffffffffffffffffffffffffff1681525050608051612bbc61006e600039600081816105ae015281816106860152610b710152612bbc6000f3fe6080604052600436106100c25760003560e01c80634ccffd501161007f57806398be7c8d1161005957806398be7c8d1461024d578063d8551d191461028a578063de99f157146102b5578063fa3ded90146102f2576100c2565b80634ccffd50146101c3578063513856c8146101df57806362e04ddc14610224576100c2565b806307e34e49146100c75780630a2921c2146100f057806313966db51461011957806324600fc31461014457806333ddce101461015b57806347d90b5c14610198575b600080fd5b3480156100d357600080fd5b506100ee60048036038101906100e99190611a3c565b61030e565b005b3480156100fc57600080fd5b5061011760048036038101906101129190611a7c565b6104da565b005b34801561012557600080fd5b5061012e6105a1565b60405161013b9190611ab8565b60405180910390f35b34801561015057600080fd5b506101596105ac565b005b34801561016757600080fd5b50610182600480360381019061017d9190611c19565b610752565b60405161018f9190611eda565b60405180910390f35b3480156101a457600080fd5b506101ad610b6f565b6040516101ba9190611f0b565b60405180910390f35b6101dd60048036038101906101d89190611f26565b610b93565b005b3480156101eb57600080fd5b5061020660048036038101906102019190611a7c565b610e39565b60405161021b99989796959493929190611ff7565b60405180910390f35b34801561023057600080fd5b5061024b60048036038101906102469190611a7c565b610fe4565b005b34801561025957600080fd5b50610274600480360381019061026f9190611a7c565b61158c565b6040516102819190611ab8565b60405180910390f35b34801561029657600080fd5b5061029f6115b0565b6040516102ac9190611ab8565b60405180910390f35b3480156102c157600080fd5b506102dc60048036038101906102d79190611a7c565b6115ba565b6040516102e99190612092565b60405180910390f35b61030c60048036038101906103079190611a7c565b6115da565b005b6002600083815260200190815260200160002060009054906101000a900460ff1661036e576040517f08c379a0000000000000000000000000000000000000000000000000000000008152600401610365906120f9565b60405180910390fd5b3373ffffffffffffffffffffffffffffffffffffffff166001600084815260200190815260200160002060020160009054906101000a900473ffffffffffffffffffffffffffffffffffffffff1673ffffffffffffffffffffffffffffffffffffffff1614610412576040517f08c379a000000000000000000000000000000000000000000000000000000000815260040161040990612165565b60405180910390fd5b60008111610455576040517f08c379a000000000000000000000000000000000000000000000000000000000815260040161044c906121d1565b60405180910390fd5b600180600084815260200190815260200160002060050160006101000a81548160ff021916908315150217905550806001600084815260200190815260200160002060060181905550817f99d9c0d6c0b16959d5ca479bc6c9ea6c5774f72147f6600bb3d24f3dd0a035fa826040516104ce9190611ab8565b60405180910390a25050565b6002600082815260200190815260200160002060009054906101000a900460ff1661053a576040517f08c379a0000000000000000000000000000000000000000000000000000000008152600401610531906120f9565b60405180910390fd5b60016000828152602001908152602001600020600401600081548092919061056190612220565b9190505550807ffd0f51766ca68bec5ce6e59b9248fe4159171bd1b4b22ce30fca312a0f816d00336040516105969190611f0b565b60405180910390a250565b662386f26fc1000081565b7f000000000000000000000000000000000000000000000000000000000000000073ffffffffffffffffffffffffffffffffffffffff163373ffffffffffffffffffffffffffffffffffffffff161461063a576040517f08c379a0000000000000000000000000000000000000000000000000000000008152600401610631906122b4565b60405180910390fd5b600047905060008111610682576040517f08c379a000000000000000000000000000000000000000000000000000000000815260040161067990612320565b60405180910390fd5b60007f000000000000000000000000000000000000000000000000000000000000000073ffffffffffffffffffffffffffffffffffffffff16826040516106c890612371565b60006040518083038185875af1925050503d8060008114610705576040519150601f19603f3d011682016040523d82523d6000602084013e61070a565b606091505b505090508061074e576040517f08c379a0000000000000000000000000000000000000000000000000000000008152600401610745906123d2565b60405180910390fd5b5050565b60606000805b6003805490508110156108075760006003828154811061077b5761077a6123f2565b5b906000526020600020015490506002600082815260200190815260200160002060009054906101000a900460ff1680156107e557508480519060200120600160008381526020019081526020016000206007016040516107db9190612519565b6040518091039020145b156107f95782806107f590612220565b9350505b508080600101915050610758565b5060008167ffffffffffffffff81111561082457610823611aee565b5b60405190808252806020026020018201604052801561085d57816020015b61084a61191b565b8152602001906001900390816108425790505b5090506000805b600380549050811015610b6357600060038281548110610887576108866123f2565b5b906000526020600020015490506002600082815260200190815260200160002060009054906101000a900460ff1680156108f157508680519060200120600160008381526020019081526020016000206007016040516108e79190612519565b6040518091039020145b15610b55576001600082815260200190815260200160002060405180610120016040529081600082015481526020016001820160009054906101000a900473ffffffffffffffffffffffffffffffffffffffff1673ffffffffffffffffffffffffffffffffffffffff1673ffffffffffffffffffffffffffffffffffffffff1681526020016002820160009054906101000a900473ffffffffffffffffffffffffffffffffffffffff1673ffffffffffffffffffffffffffffffffffffffff1673ffffffffffffffffffffffffffffffffffffffff16815260200160038201548152602001600482015481526020016005820160009054906101000a900460ff1615151515815260200160068201548152602001600782018054610a1490612450565b80601f0160208091040260200160405190810160405280929190818152602001828054610a4090612450565b8015610a8d5780601f10610a6257610100808354040283529160200191610a8d565b820191906000526020600020905b815481529060010190602001808311610a7057829003601f168201915b50505050508152602001600882018054610aa690612450565b80601f0160208091040260200160405190810160405280929190818152602001828054610ad290612450565b8015610b1f5780601f10610af457610100808354040283529160200191610b1f565b820191906000526020600020905b815481529060010190602001808311610b0257829003601f168201915b505050505081525050848481518110610b3b57610b3a6123f2565b5b60200260200101819052508280610b5190612220565b9350505b508080600101915050610864565b50819350505050919050565b7f000000000000000000000000000000000000000000000000000000000000000081565b662386f26fc100003414610bdc576040517f08c379a0000000000000000000000000000000000000000000000000000000008152600401610bd3906125a2565b60405180910390fd5b600080815480929190610bee90612220565b919050555060008054905060006040518061012001604052808381526020013373ffffffffffffffffffffffffffffffffffffffff1681526020013373ffffffffffffffffffffffffffffffffffffffff168152602001662386f26fc100008152602001600081526020016000151581526020016000815260200185815260200184815250905080600160008481526020019081526020016000206000820151816000015560208201518160010160006101000a81548173ffffffffffffffffffffffffffffffffffffffff021916908373ffffffffffffffffffffffffffffffffffffffff16021790555060408201518160020160006101000a81548173ffffffffffffffffffffffffffffffffffffffff021916908373ffffffffffffffffffffffffffffffffffffffff160217905550606082015181600301556080820151816004015560a08201518160050160006101000a81548160ff02191690831515021790555060c0820151816006015560e0820151816007019081610d74919061276e565b50610100820151816008019081610d8b919061276e565b5090505060016002600084815260200190815260200160002060006101000a81548160ff02191690831515021790555060038290806001815401808255809150506001900390600052602060002001600090919091909150553373ffffffffffffffffffffffffffffffffffffffff16827f4163bfac127160e0f9f156ad45f09360dfe365c4fcdf394c40bdfece890ee6f786604051610e2b9190612840565b60405180910390a350505050565b60016020528060005260406000206000915090508060000154908060010160009054906101000a900473ffffffffffffffffffffffffffffffffffffffff16908060020160009054906101000a900473ffffffffffffffffffffffffffffffffffffffff16908060030154908060040154908060050160009054906101000a900460ff1690806006015490806007018054610ed390612450565b80601f0160208091040260200160405190810160405280929190818152602001828054610eff90612450565b8015610f4c5780601f10610f2157610100808354040283529160200191610f4c565b820191906000526020600020905b815481529060010190602001808311610f2f57829003601f168201915b505050505090806008018054610f6190612450565b80601f0160208091040260200160405190810160405280929190818152602001828054610f8d90612450565b8015610fda5780601f10610faf57610100808354040283529160200191610fda565b820191906000526020600020905b815481529060010190602001808311610fbd57829003601f168201915b5050505050905089565b6002600082815260200190815260200160002060009054906101000a900460ff16611044576040517f08c379a000000000000000000000000000000000000000000000000000000000815260040161103b906120f9565b60405180910390fd5b3373ffffffffffffffffffffffffffffffffffffffff166001600083815260200190815260200160002060020160009054906101000a900473ffffffffffffffffffffffffffffffffffffffff1673ffffffffffffffffffffffffffffffffffffffff16146110e8576040517f08c379a00000000000000000000000000000000000000000000000000000000081526004016110df90612165565b60405180910390fd5b60006001600083815260200190815260200160002060405180610120016040529081600082015481526020016001820160009054906101000a900473ffffffffffffffffffffffffffffffffffffffff1673ffffffffffffffffffffffffffffffffffffffff1673ffffffffffffffffffffffffffffffffffffffff1681526020016002820160009054906101000a900473ffffffffffffffffffffffffffffffffffffffff1673ffffffffffffffffffffffffffffffffffffffff1673ffffffffffffffffffffffffffffffffffffffff16815260200160038201548152602001600482015481526020016005820160009054906101000a900460ff161515151581526020016006820154815260200160078201805461120890612450565b80601f016020809104026020016040519081016040528092919081815260200182805461123490612450565b80156112815780601f1061125657610100808354040283529160200191611281565b820191906000526020600020905b81548152906001019060200180831161126457829003601f168201915b5050505050815260200160088201805461129a90612450565b80601f01602080910402602001604051908101604052809291908181526020018280546112c690612450565b80156113135780601f106112e857610100808354040283529160200191611313565b820191906000526020600020905b8154815290600101906020018083116112f657829003601f168201915b50505050508152505090506000655af3107a400082608001516113369190612862565b9050600081836060015111156113595781836060015161135691906128a4565b90505b600160008581526020019081526020016000206000808201600090556001820160006101000a81549073ffffffffffffffffffffffffffffffffffffffff02191690556002820160006101000a81549073ffffffffffffffffffffffffffffffffffffffff0219169055600382016000905560048201600090556005820160006101000a81549060ff021916905560068201600090556007820160006113ff9190611995565b60088201600061140f9190611995565b505060006002600086815260200190815260200160002060006101000a81548160ff02191690831515021790555060008111156115375780471015611489576040517f08c379a00000000000000000000000000000000000000000000000000000000081526004016114809061294a565b60405180910390fd5b60003373ffffffffffffffffffffffffffffffffffffffff16826040516114af90612371565b60006040518083038185875af1925050503d80600081146114ec576040519150601f19603f3d011682016040523d82523d6000602084013e6114f1565b606091505b5050905080611535576040517f08c379a000000000000000000000000000000000000000000000000000000000815260040161152c906129b6565b60405180910390fd5b505b3373ffffffffffffffffffffffffffffffffffffffff16847f029d9cf70b664c53d01206488e604434f6d25dcf0b078f432886206e7af7e58c8360405161157e9190611ab8565b60405180910390a350505050565b6003818154811061159c57600080fd5b906000526020600020016000915090505481565b655af3107a400081565b60026020528060005260406000206000915054906101000a900460ff1681565b6002600082815260200190815260200160002060009054906101000a900460ff1661163a576040517f08c379a0000000000000000000000000000000000000000000000000000000008152600401611631906120f9565b60405180910390fd5b60006001600083815260200190815260200160002090508060050160009054906101000a900460ff166116a2576040517f08c379a000000000000000000000000000000000000000000000000000000000815260040161169990612a22565b60405180910390fd5b806006015434146116e8576040517f08c379a00000000000000000000000000000000000000000000000000000000081526004016116df90612a8e565b60405180910390fd5b3373ffffffffffffffffffffffffffffffffffffffff168160020160009054906101000a900473ffffffffffffffffffffffffffffffffffffffff1673ffffffffffffffffffffffffffffffffffffffff160361177a576040517f08c379a000000000000000000000000000000000000000000000000000000000815260040161177190612afa565b60405180910390fd5b60008160020160009054906101000a900473ffffffffffffffffffffffffffffffffffffffff169050338260020160006101000a81548173ffffffffffffffffffffffffffffffffffffffff021916908373ffffffffffffffffffffffffffffffffffffffff16021790555060008260050160006101000a81548160ff02191690831515021790555060008173ffffffffffffffffffffffffffffffffffffffff163460405161182990612371565b60006040518083038185875af1925050503d8060008114611866576040519150601f19603f3d011682016040523d82523d6000602084013e61186b565b606091505b50509050806118af576040517f08c379a00000000000000000000000000000000000000000000000000000000081526004016118a690612b66565b60405180910390fd5b3373ffffffffffffffffffffffffffffffffffffffff168273ffffffffffffffffffffffffffffffffffffffff16857f7cdae15f30459d4190cb58aea3935f1539e7543c9c726eebf6567486d1ffda663460405161190d9190611ab8565b60405180910390a450505050565b60405180610120016040528060008152602001600073ffffffffffffffffffffffffffffffffffffffff168152602001600073ffffffffffffffffffffffffffffffffffffffff16815260200160008152602001600081526020016000151581526020016000815260200160608152602001606081525090565b5080546119a190612450565b6000825580601f106119b357506119d2565b601f0160209004906000526020600020908101906119d191906119d5565b5b50565b5b808211156119ee5760008160009055506001016119d6565b5090565b6000604051905090565b600080fd5b600080fd5b6000819050919050565b611a1981611a06565b8114611a2457600080fd5b50565b600081359050611a3681611a10565b92915050565b60008060408385031215611a5357611a526119fc565b5b6000611a6185828601611a27565b9250506020611a7285828601611a27565b9150509250929050565b600060208284031215611a9257611a916119fc565b5b6000611aa084828501611a27565b91505092915050565b611ab281611a06565b82525050565b6000602082019050611acd6000830184611aa9565b92915050565b600080fd5b600080fd5b6000601f19601f8301169050919050565b7f4e487b7100000000000000000000000000000000000000000000000000000000600052604160045260246000fd5b611b2682611add565b810181811067ffffffffffffffff82111715611b4557611b44611aee565b5b80604052505050565b6000611b586119f2565b9050611b648282611b1d565b919050565b600067ffffffffffffffff821115611b8457611b83611aee565b5b611b8d82611add565b9050602081019050919050565b82818337600083830152505050565b6000611bbc611bb784611b69565b611b4e565b905082815260208101848484011115611bd857611bd7611ad8565b5b611be3848285611b9a565b509392505050565b600082601f830112611c0057611bff611ad3565b5b8135611c10848260208601611ba9565b91505092915050565b600060208284031215611c2f57611c2e6119fc565b5b600082013567ffffffffffffffff811115611c4d57611c4c611a01565b5b611c5984828501611beb565b91505092915050565b600081519050919050565b600082825260208201905092915050565b6000819050602082019050919050565b611c9781611a06565b82525050565b600073ffffffffffffffffffffffffffffffffffffffff82169050919050565b6000611cc882611c9d565b9050919050565b611cd881611cbd565b82525050565b60008115159050919050565b611cf381611cde565b82525050565b600081519050919050565b600082825260208201905092915050565b60005b83811015611d33578082015181840152602081019050611d18565b60008484015250505050565b6000611d4a82611cf9565b611d548185611d04565b9350611d64818560208601611d15565b611d6d81611add565b840191505092915050565b600061012083016000830151611d916000860182611c8e565b506020830151611da46020860182611ccf565b506040830151611db76040860182611ccf565b506060830151611dca6060860182611c8e565b506080830151611ddd6080860182611c8e565b5060a0830151611df060a0860182611cea565b5060c0830151611e0360c0860182611c8e565b5060e083015184820360e0860152611e1b8282611d3f565b915050610100830151848203610100860152611e378282611d3f565b9150508091505092915050565b6000611e508383611d78565b905092915050565b6000602082019050919050565b6000611e7082611c62565b611e7a8185611c6d565b935083602082028501611e8c85611c7e565b8060005b85811015611ec85784840389528151611ea98582611e44565b9450611eb483611e58565b925060208a01995050600181019050611e90565b50829750879550505050505092915050565b60006020820190508181036000830152611ef48184611e65565b905092915050565b611f0581611cbd565b82525050565b6000602082019050611f206000830184611efc565b92915050565b60008060408385031215611f3d57611f3c6119fc565b5b600083013567ffffffffffffffff811115611f5b57611f5a611a01565b5b611f6785828601611beb565b925050602083013567ffffffffffffffff811115611f8857611f87611a01565b5b611f9485828601611beb565b9150509250929050565b611fa781611cde565b82525050565b600082825260208201905092915050565b6000611fc982611cf9565b611fd38185611fad565b9350611fe3818560208601611d15565b611fec81611add565b840191505092915050565b60006101208201905061200d600083018c611aa9565b61201a602083018b611efc565b612027604083018a611efc565b6120346060830189611aa9565b6120416080830188611aa9565b61204e60a0830187611f9e565b61205b60c0830186611aa9565b81810360e083015261206d8185611fbe565b90508181036101008301526120828184611fbe565b90509a9950505050505050505050565b60006020820190506120a76000830184611f9e565b92915050565b7f4167656e7420646f6573206e6f74206578697374000000000000000000000000600082015250565b60006120e3601483611fad565b91506120ee826120ad565b602082019050919050565b60006020820190508181036000830152612112816120d6565b9050919050565b7f4e6f7420746865206167656e74206f776e657200000000000000000000000000600082015250565b600061214f601383611fad565b915061215a82612119565b602082019050919050565b6000602082019050818103600083015261217e81612142565b9050919050565b7f5072696365206d7573742062652067726561746572207468616e207a65726f00600082015250565b60006121bb601f83611fad565b91506121c682612185565b602082019050919050565b600060208201905081810360008301526121ea816121ae565b9050919050565b7f4e487b7100000000000000000000000000000000000000000000000000000000600052601160045260246000fd5b600061222b82611a06565b91507fffffffffffffffffffffffffffffffffffffffffffffffffffffffffffffffff820361225d5761225c6121f1565b5b600182019050919050565b7f4e6f7420746865206d61726b6574706c616365206f776e657200000000000000600082015250565b600061229e601983611fad565b91506122a982612268565b602082019050919050565b600060208201905081810360008301526122cd81612291565b9050919050565b7f4e6f2066756e647320746f207769746864726177000000000000000000000000600082015250565b600061230a601483611fad565b9150612315826122d4565b602082019050919050565b60006020820190508181036000830152612339816122fd565b9050919050565b600081905092915050565b50565b600061235b600083612340565b91506123668261234b565b600082019050919050565b600061237c8261234e565b9150819050919050565b7f5769746864726177616c206661696c6564000000000000000000000000000000600082015250565b60006123bc601183611fad565b91506123c782612386565b602082019050919050565b600060208201905081810360008301526123eb816123af565b9050919050565b7f4e487b7100000000000000000000000000000000000000000000000000000000600052603260045260246000fd5b7f4e487b7100000000000000000000000000000000000000000000000000000000600052602260045260246000fd5b6000600282049050600182168061246857607f821691505b60208210810361247b5761247a612421565b5b50919050565b60008190508160005260206000209050919050565b600081546124a381612450565b6124ad8186612340565b945060018216600081146124c857600181146124dd57612510565b60ff1983168652811515820286019350612510565b6124e685612481565b60005b83811015612508578154818901526001820191506020810190506124e9565b838801955050505b50505092915050565b60006125258284612496565b915081905092915050565b7f4d757374207061792065786163746c7920302e3031204f4b4220746f206d696e60008201527f74206167656e7400000000000000000000000000000000000000000000000000602082015250565b600061258c602783611fad565b915061259782612530565b604082019050919050565b600060208201905081810360008301526125bb8161257f565b9050919050565b60008190508160005260206000209050919050565b60006020601f8301049050919050565b600082821b905092915050565b6000600883026126247fffffffffffffffffffffffffffffffffffffffffffffffffffffffffffffffff826125e7565b61262e86836125e7565b95508019841693508086168417925050509392505050565b6000819050919050565b600061266b61266661266184611a06565b612646565b611a06565b9050919050565b6000819050919050565b61268583612650565b61269961269182612672565b8484546125f4565b825550505050565b600090565b6126ae6126a1565b6126b981848461267c565b505050565b5b818110156126dd576126d26000826126a6565b6001810190506126bf565b5050565b601f821115612722576126f3816125c2565b6126fc846125d7565b8101602085101561270b578190505b61271f612717856125d7565b8301826126be565b50505b505050565b600082821c905092915050565b600061274560001984600802612727565b1980831691505092915050565b600061275e8383612734565b9150826002028217905092915050565b61277782611cf9565b67ffffffffffffffff8111156127905761278f611aee565b5b61279a8254612450565b6127a58282856126e1565b600060209050601f8311600181146127d857600084156127c6578287015190505b6127d08582612752565b865550612838565b601f1984166127e6866125c2565b60005b8281101561280e578489015182556001820191506020850194506020810190506127e9565b8683101561282b5784890151612827601f891682612734565b8355505b6001600288020188555050505b505050505050565b6000602082019050818103600083015261285a8184611fbe565b905092915050565b600061286d82611a06565b915061287883611a06565b925082820261288681611a06565b9150828204841483151761289d5761289c6121f1565b5b5092915050565b60006128af82611a06565b91506128ba83611a06565b92508282039050818111156128d2576128d16121f1565b5b92915050565b7f436f6e74726163742068617320696e73756666696369656e742062616c616e6360008201527f6520666f7220726566756e640000000000000000000000000000000000000000602082015250565b6000612934602c83611fad565b915061293f826128d8565b604082019050919050565b6000602082019050818103600083015261296381612927565b9050919050565b7f526566756e64207472616e73666572206661696c656400000000000000000000600082015250565b60006129a0601683611fad565b91506129ab8261296a565b602082019050919050565b600060208201905081810360008301526129cf81612993565b9050919050565b7f4167656e74206973206e6f74206c697374656420666f722073616c6500000000600082015250565b6000612a0c601c83611fad565b9150612a17826129d6565b602082019050919050565b60006020820190508181036000830152612a3b816129ff565b9050919050565b7f496e636f7272656374204554482073656e740000000000000000000000000000600082015250565b6000612a78601283611fad565b9150612a8382612a42565b602082019050919050565b60006020820190508181036000830152612aa781612a6b565b9050919050565b7f43616e6e6f742062757920796f7572206f776e206167656e7400000000000000600082015250565b6000612ae4601983611fad565b9150612aef82612aae565b602082019050919050565b60006020820190508181036000830152612b1381612ad7565b9050919050565b7f5472616e73666572206661696c65640000000000000000000000000000000000600082015250565b6000612b50600f83611fad565b9150612b5b82612b1a565b602082019050919050565b60006020820190508181036000830152612b7f81612b43565b905091905056fea2646970667358221220849577f50d3b6dc1101f83b062da37913f8c13fbff70f8dc4fb67f0bd574fcb664736f6c63430008180033",
  "linkReferences": {},
  "deployedLinkReferences": {}
}